:100000000C9462000C94E2030C94BB030C948A00E1
:100010000C948A000C948A000C948A000C948A0038
:100020000C948A000C948A000C948A000C948A0028
:100030000C948A000C948A000C948A000C948A0018
:100040000C9471030C948A000C948A000C948A001E
:100050000C948A000C948A000C948A000C948A00F8
:100060000C948A000C948A000000000024002700F1
:100070002A0000000000250028002B0000000000DE
:1000800023002600290004040404040404040202DA
:100090000202020203030303030301020408102007
:1000A0004080010204081020010204081020000012
:1000B0000008000201000003040700000000000027
:1000C0000000D30411241FBECFEFD8E0DEBFCDBFA8
:1000D00011E0A0E0B1E0E2EFF9E002C005900D927E
:1000E000AE3CB107D9F721E0AEECB1E001C01D9202
:1000F000A13FB207E1F710E0C2E6D0E004C02197CB
:10010000FE010E94F104C136D107C9F70E9409041B
:100110000C94F7040C940000833081F028F48130B3
:1001200099F08230A9F008958730A9F08830C9F09D
:100130008430B1F4809180008F7D03C08091800075
:100140008F7780938000089584B58F7784BD08955C
:1001500084B58F7DFBCF8091B0008F778093B00006
:1001600008958091B0008F7DF9CFCF93DF93282F32
:1001700030E0F901E255FF4F8491F901E656FF4F57
:10018000D491F901EA57FF4FC491CC23A1F081111A
:100190000E948C00EC2FF0E0EE0FFF1FE458FF4FA1
:1001A000A591B491EC91ED2381E090E009F480E019
:1001B000DF91CF91089580E090E0FACF1F93CF9325
:1001C000DF93282F30E0F901E255FF4F8491F901C8
:1001D000E656FF4FD491F901EA57FF4FC491CC2363
:1001E000A9F0162F81110E948C00EC2FF0E0EE0F89
:1001F000FF1FEE58FF4FA591B4918FB7F894EC9183
:10020000111108C0D095DE23DC938FBFDF91CF9111
:100210001F910895DE2BF8CFCF93DF9390E0FC0180
:10022000E656FF4F24918A579F4FFC018491882303
:10023000D1F090E0880F991FFC01E859FF4FA5917C
:10024000B491FC01EE58FF4FC591D491623071F426
:100250009FB7F8943C91822F809583238C93E881FB
:100260002E2B28839FBFDF91CF9108958FB7F894ED
:10027000EC912E2B2C938FBFF6CFCF93DF9300D032
:10028000CDB7DEB71A82198289819A819C012F5FCE
:100290003F4F3A83298380389E43B4F382E00E9423
:1002A000B50021E0892B09F020E02093CF010F90C9
:1002B0000F90DF91CF910895CF93DF9300D0CDB70A
:1002C000DEB71A82198289819A819C012F5F3F4F84
:1002D0003A83298380389E43B4F383E00E94B500BB
:1002E00021E0892B09F020E02093CE010F900F90A0
:1002F000DF91CF9108950895AF92BF92CF92DF9290
:10030000EF92FF920F931F93CF93DF936C017B01CA
:100310008B01040F151FEB015E01AE18BF08C0175B
:10032000D10759F06991D601ED91FC910190F081CE
:10033000E02DC6010995892B79F7C501DF91CF9191
:100340001F910F91FF90EF90DF90CF90BF90AF90F3
:100350000895089590E080E0089582E00E94B5003D
:1003600021E0892B09F020E02093CF0183E00E9457
:10037000B50021E0892B09F020E02093CE016091A7
:10038000CF0189E00E94DE006091CE018AE00C94EA
:10039000DE00009769F0FC0101900020E9F7319739
:1003A000AF01481B590BBC0189ED91E00C947C0115
:1003B00090E080E00895CF93DF93EC0160E08E81C0
:1003C0000E94DE0061E08E810E94DE0060E08E818E
:1003D0000E94DE008BE891E00197F1F7DF91CF9169
:1003E0000895CF92DF92EF92FF920F931F93CF93D6
:1003F000DF936C017C0187E0E80EF11CD0E0C0E0E7
:10040000062F10E0B8010C2E02C0759567950A946E
:10041000E2F76170F70181917F010E94DE00219671
:10042000C430D10579F7C601DF91CF911F910F91AB
:10043000FF90EF90DF90CF900C94DB01CF92DF9292
:10044000EF92FF920F931F93CF93DF93EC01F62E61
:10045000642F8C810E94DE008D818F3F19F060E057
:100460000E94DE000F2D10E08F8584FF25C06E01F5
:1004700087E0C80ED11CF12CE12CB8010E2C02C073
:10048000759567950A94E2F76170F60181916F01A5
:100490000E94DE00FFEFEF1AFF0A88E0E816F10481
:1004A00061F7CE01DF91CF911F910F91FF90EF90F7
:1004B000DF90CF900C94DB01B80184E075956795CF
:1004C0008A95E1F7CE010E94F1016F2DCE01DF91F7
:1004D000CF911F910F91FF90EF90DF90CF900C94F0
:1004E000F10140E0682F89ED91E00C941E02CF935A
:1004F000DF93823029F49091E80198609093E801AD
:100500008093EC011092ED0180E48093EE0180E194
:100510008093EF0180E58093F00161E08091DD013F
:100520000E940C018091DE018F3F19F061E00E9472
:100530000C0161E08091DF010E940C01C9EDD1E066
:100540009E01295D31408091E80184FD0BC084E06B
:1005500090E021962817390744F461E08E810E94CB
:100560000C01EECF88E090E0F4CF8BE39DE00197A3
:10057000F1F760E08091DD010E94DE0060E0809193
:10058000DF010E94DE008091DE018F3F19F060E004
:100590000E94DE008091E80184FD39C063E089EDAE
:1005A00091E00E94F101CBE4D6E4CE010197F1F78E
:1005B00063E089ED91E00E94F1012197F1F763E09A
:1005C00089ED91E00E94F10183E592E00197F1F756
:1005D00062E089ED91E00E94F1018091E801806282
:1005E0000E94710284E08093E9018CE00E94710214
:1005F00081E00E9471028BE39FE10197F1F782E0B5
:100600008093EA0186E0DF91CF910C9471028062C1
:100610000E9471028BE496E40197F1F78091E80162
:1006200080620E94710283E592E00197F1F7809168
:10063000E80180620E947102D0CF9091EC0189178D
:1006400010F08FEF890FE82FF0E0E752FE4F84891A
:1006500080680C9471020F931F93CF93DF932091C6
:100660000201309103012817390739F42091000164
:10067000309101012617370749F1EB018C0181E028
:100680000E9471028BE39FE10197F1F780E00E94E5
:100690001D03F801EE0FFF1FE85FFE4F808191817F
:1006A0000E94C90181E00E941D03FE01EE0FFF1FA1
:1006B000E85FFE4F808191810E94C9011093030180
:1006C00000930201D0930101C0930001DF91CF910B
:1006D0001F910F91089541E00E941E0281E090E079
:1006E00008951F920F920FB60F9211242F933F93EC
:1006F0008F939F93AF93BF938091D5019091D60133
:10070000A091D701B091D8013091D40123E0230FFB
:100710002D3758F50196A11DB11D2093D40180936A
:10072000D5019093D601A093D701B093D8018091C1
:10073000D0019091D101A091D201B091D301019645
:10074000A11DB11D8093D0019093D101A093D2013E
:10075000B093D301BF91AF919F918F913F912F9112
:100760000F900FBE0F901F90189526E8230F02964A
:10077000A11DB11DD2CF1F920F920FB60F9211245F
:100780002F933F934F935F936F937F938F939F9399
:10079000AF93BF93EF93FF93E0910601F0910701B0
:1007A0000995FF91EF91BF91AF919F918F917F91AB
:1007B0006F915F914F913F912F910F900FBE0F90CE
:1007C0001F9018951F920F920FB60F9211242F931E
:1007D0003F934F935F936F937F938F939F93AF93C9
:1007E000BF93EF93FF93E0910401F0910501099508
:1007F000FF91EF91BF91AF919F918F917F916F91F9
:100800005F914F913F912F910F900FBE0F901F90CE
:100810001895789484B5826084BD84B5816084BD68
:1008200085B5826085BD85B5816085BD80916E008E
:10083000816080936E0010928100809181008260BF
:1008400080938100809181008160809381008091FC
:1008500080008160809380008091B10084608093EB
:10086000B1008091B00081608093B00080917A00E7
:10087000846080937A0080917A00826080937A000D
:1008800080917A00816080937A0080917A008068FC
:1008900080937A001092C10082E00E94770280E08B
:1008A0000E941D0384E291E00E94C90181E00E9440
:1008B0001D0385E391E00E94C90162E082E00E948D
:1008C0000C0162E083E00E940C0161E088E00E947C
:1008D0000C0161E089E00E940C0161E08AE00E9465
:1008E0000C0161E088E00E94DE008DE391E09093CE
:1008F000050180930401809169008C7F8260809360
:100900006900E89A8CE591E09093070180930601D5
:1009100080916900837F886080936900E99A789468
:10092000C0E0D0E00E94AD018091CF018823B9F0F2
:1009300067E070E090E080E00E942B0361E088E0D7
:100940000E94DE008091CE018823B9F066E070E05D
:1009500083E090E00E942B030E94AD01F3CF8091D1
:10096000CE01882379F067E070E086E090E00E9495
:100970002B0360E088E00E94DE00209799F20E943D
:100980000000D0CF62E070E081E090E00E942B0395
:100990008091CF018111F1CF8091CE018111EDCFF6
:1009A0000E94AD01F5CFE9EDF1E0138212828CE1F6
:1009B00091E0918380838CE084838FEF85838BE04B
:1009C000868384E0878385E0808786E0818787E06F
:1009D00082871386148615861686178681E00C9406
:1009E0007702EE0FFF1F0590F491E02D0994F89423
:0209F000FFCF37
:1009F200FFFFFFFF7B017B0146015701680179017F
:100A02008A019B01AC01BD01000000006B037C0167
:100A1200AA01A9012A2A204B726166742644656CD8
:100A220065202A2A002A2A2A2020537769746368BB
:100A320020202A2A2A00204D61696E73202020205E
:100A420020202020202000204E6F20706F776572BA
:100A520020646574632E20002053746172742067D1
:100A6200656E657261742E20002053746F70706918
:100A72006E67202020202020200020537461727491
:100A820065642020202020202020002053746F70D5
:100A92007065642020202020202020002047656EE1
:100AA200657261746F72202020202020002044652E
:0E0AB2007465637465642020202020202000DD
:107E0000112484B714BE81FFF0D085E080938100F7
:107E100082E08093C00088E18093C10086E0809377
:107E2000C20080E18093C4008EE0C9D0259A86E02C
:107E300020E33CEF91E0309385002093840096BBD3
:107E4000B09BFECF1D9AA8958150A9F7CC24DD24C4
:107E500088248394B5E0AB2EA1E19A2EF3E0BF2EE7
:107E6000A2D0813461F49FD0082FAFD0023811F036
:107E7000013811F484E001C083E08DD089C08234E0
:107E800011F484E103C0853419F485E0A6D080C0E4
:107E9000853579F488D0E82EFF2485D0082F10E0AE
:107EA000102F00270E291F29000F111F8ED06801E7
:107EB0006FC0863521F484E090D080E0DECF843638
:107EC00009F040C070D06FD0082F6DD080E0C81688
:107ED00080E7D80618F4F601B7BEE895C0E0D1E017
:107EE00062D089930C17E1F7F0E0CF16F0E7DF06D8
:107EF00018F0F601B7BEE89568D007B600FCFDCFD4
:107F0000A601A0E0B1E02C9130E011968C91119780
:107F100090E0982F8827822B932B1296FA010C0160
:107F200087BEE89511244E5F5F4FF1E0A038BF0790
:107F300051F7F601A7BEE89507B600FCFDCF97BE46
:107F4000E89526C08437B1F42ED02DD0F82E2BD052
:107F50003CD0F601EF2C8F010F5F1F4F84911BD097
:107F6000EA94F801C1F70894C11CD11CFA94CF0C13
:107F7000D11C0EC0853739F428D08EE10CD085E9AC
:107F80000AD08FE07ACF813511F488E018D01DD067
:107F900080E101D065CF982F8091C00085FFFCCF94
:107FA0009093C60008958091C00087FFFCCF809118
:107FB000C00084FD01C0A8958091C6000895E0E648
:107FC000F0E098E1908380830895EDDF803219F02E
:107FD00088E0F5DFFFCF84E1DECF1F93182FE3DFCA
:107FE0001150E9F7F2DF1F91089580E0E8DFEE27F6
:047FF000FF270994CA
:027FFE00040479
:0400000300007E007B
:00000001FF
